{
  "_format": "hh-sol-artifact-1",
  "contractName": "NFTMarketplace",
  "sourceName": "contracts/NFTMarketplace.sol",
  "abi": [
    {
      "inputs": [],
      "stateMutability": "nonpayable",
      "type": "constructor"
    },
    {
      "inputs": [
        {
          "internalType": "address",
          "name": "sender",
          "type": "address"
        },
        {
          "internalType": "uint256",
          "name": "tokenId",
          "type": "uint256"
        },
        {
          "internalType": "address",
          "name": "owner",
          "type": "address"
        }
      ],
      "name": "ERC721IncorrectOwner",
      "type": "error"
    },
    {
      "inputs": [
        {
          "internalType": "address",
          "name": "operator",
          "type": "address"
        },
        {
          "internalType": "uint256",
          "name": "tokenId",
          "type": "uint256"
        }
      ],
      "name": "ERC721InsufficientApproval",
      "type": "error"
    },
    {
      "inputs": [
        {
          "internalType": "address",
          "name": "approver",
          "type": "address"
        }
      ],
      "name": "ERC721InvalidApprover",
      "type": "error"
    },
    {
      "inputs": [
        {
          "internalType": "address",
          "name": "operator",
          "type": "address"
        }
      ],
      "name": "ERC721InvalidOperator",
      "type": "error"
    },
    {
      "inputs": [
        {
          "internalType": "address",
          "name": "owner",
          "type": "address"
        }
      ],
      "name": "ERC721InvalidOwner",
      "type": "error"
    },
    {
      "inputs": [
        {
          "internalType": "address",
          "name": "receiver",
          "type": "address"
        }
      ],
      "name": "ERC721InvalidReceiver",
      "type": "error"
    },
    {
      "inputs": [
        {
          "internalType": "address",
          "name": "sender",
          "type": "address"
        }
      ],
      "name": "ERC721InvalidSender",
      "type": "error"
    },
    {
      "inputs": [
        {
          "internalType": "uint256",
          "name": "tokenId",
          "type": "uint256"
        }
      ],
      "name": "ERC721NonexistentToken",
      "type": "error"
    },
    {
      "inputs": [],
      "name": "ReentrancyGuardReentrantCall",
      "type": "error"
    },
    {
      "anonymous": false,
      "inputs": [
        {
          "indexed": true,
          "internalType": "address",
          "name": "owner",
          "type": "address"
        },
        {
          "indexed": true,
          "internalType": "address",
          "name": "approved",
          "type": "address"
        },
        {
          "indexed": true,
          "internalType": "uint256",
          "name": "tokenId",
          "type": "uint256"
        }
      ],
      "name": "Approval",
      "type": "event"
    },
    {
      "anonymous": false,
      "inputs": [
        {
          "indexed": true,
          "internalType": "address",
          "name": "owner",
          "type": "address"
        },
        {
          "indexed": true,
          "internalType": "address",
          "name": "operator",
          "type": "address"
        },
        {
          "indexed": false,
          "internalType": "bool",
          "name": "approved",
          "type": "bool"
        }
      ],
      "name": "ApprovalForAll",
      "type": "event"
    },
    {
      "anonymous": false,
      "inputs": [
        {
          "indexed": false,
          "internalType": "uint256",
          "name": "_fromTokenId",
          "type": "uint256"
        },
        {
          "indexed": false,
          "internalType": "uint256",
          "name": "_toTokenId",
          "type": "uint256"
        }
      ],
      "name": "BatchMetadataUpdate",
      "type": "event"
    },
    {
      "anonymous": false,
      "inputs": [
        {
          "indexed": false,
          "internalType": "uint256",
          "name": "_tokenId",
          "type": "uint256"
        }
      ],
      "name": "MetadataUpdate",
      "type": "event"
    },
    {
      "anonymous": false,
      "inputs": [
        {
          "indexed": true,
          "internalType": "address",
          "name": "from",
          "type": "address"
        },
        {
          "indexed": true,
          "internalType": "address",
          "name": "to",
          "type": "address"
        },
        {
          "indexed": true,
          "internalType": "uint256",
          "name": "tokenId",
          "type": "uint256"
        }
      ],
      "name": "Transfer",
      "type": "event"
    },
    {
      "anonymous": false,
      "inputs": [
        {
          "indexed": true,
          "internalType": "uint256",
          "name": "_itemIds",
          "type": "uint256"
        },
        {
          "indexed": true,
          "internalType": "address",
          "name": "seller",
          "type": "address"
        },
        {
          "indexed": true,
          "internalType": "address",
          "name": "owner",
          "type": "address"
        },
        {
          "indexed": false,
          "internalType": "uint256",
          "name": "price",
          "type": "uint256"
        },
        {
          "indexed": false,
          "internalType": "bool",
          "name": "sold",
          "type": "bool"
        }
      ],
      "name": "idMarketItemCreated",
      "type": "event"
    },
    {
      "inputs": [],
      "name": "_tokenId",
      "outputs": [
        {
          "internalType": "uint256",
          "name": "",
          "type": "uint256"
        }
      ],
      "stateMutability": "view",
      "type": "function"
    },
    {
      "inputs": [
        {
          "internalType": "address",
          "name": "to",
          "type": "address"
        },
        {
          "internalType": "uint256",
          "name": "tokenId",
          "type": "uint256"
        }
      ],
      "name": "approve",
      "outputs": [],
      "stateMutability": "nonpayable",
      "type": "function"
    },
    {
      "inputs": [
        {
          "internalType": "address",
          "name": "owner",
          "type": "address"
        }
      ],
      "name": "balanceOf",
      "outputs": [
        {
          "internalType": "uint256",
          "name": "",
          "type": "uint256"
        }
      ],
      "stateMutability": "view",
      "type": "function"
    },
    {
      "inputs": [
        {
          "internalType": "string",
          "name": "tokenURI",
          "type": "string"
        },
        {
          "internalType": "uint256",
          "name": "price",
          "type": "uint256"
        }
      ],
      "name": "createItem",
      "outputs": [
        {
          "internalType": "uint256",
          "name": "",
          "type": "uint256"
        }
      ],
      "stateMutability": "payable",
      "type": "function"
    },
    {
      "inputs": [
        {
          "internalType": "uint256",
          "name": "tokenId",
          "type": "uint256"
        }
      ],
      "name": "createMarketSale",
      "outputs": [],
      "stateMutability": "payable",
      "type": "function"
    },
    {
      "inputs": [],
      "name": "fetchItemListed",
      "outputs": [
        {
          "components": [
            {
              "internalType": "uint256",
              "name": "tokenId",
              "type": "uint256"
            },
            {
              "internalType": "address payable",
              "name": "seller",
              "type": "address"
            },
            {
              "internalType": "address payable",
              "name": "owner",
              "type": "address"
            },
            {
              "internalType": "uint256",
              "name": "price",
              "type": "uint256"
            },
            {
              "internalType": "bool",
              "name": "sold",
              "type": "bool"
            }
          ],
          "internalType": "struct NFTMarketplace.MarketItem[]",
          "name": "",
          "type": "tuple[]"
        }
      ],
      "stateMutability": "view",
      "type": "function"
    },
    {
      "inputs": [],
      "name": "fetchMarketItem",
      "outputs": [
        {
          "components": [
            {
              "internalType": "uint256",
              "name": "tokenId",
              "type": "uint256"
            },
            {
              "internalType": "address payable",
              "name": "seller",
              "type": "address"
            },
            {
              "internalType": "address payable",
              "name": "owner",
              "type": "address"
            },
            {
              "internalType": "uint256",
              "name": "price",
              "type": "uint256"
            },
            {
              "internalType": "bool",
              "name": "sold",
              "type": "bool"
            }
          ],
          "internalType": "struct NFTMarketplace.MarketItem[]",
          "name": "",
          "type": "tuple[]"
        }
      ],
      "stateMutability": "view",
      "type": "function"
    },
    {
      "inputs": [],
      "name": "fetchMyNNft",
      "outputs": [
        {
          "components": [
            {
              "internalType": "uint256",
              "name": "tokenId",
              "type": "uint256"
            },
            {
              "internalType": "address payable",
              "name": "seller",
              "type": "address"
            },
            {
              "internalType": "address payable",
              "name": "owner",
              "type": "address"
            },
            {
              "internalType": "uint256",
              "name": "price",
              "type": "uint256"
            },
            {
              "internalType": "bool",
              "name": "sold",
              "type": "bool"
            }
          ],
          "internalType": "struct NFTMarketplace.MarketItem[]",
          "name": "",
          "type": "tuple[]"
        }
      ],
      "stateMutability": "view",
      "type": "function"
    },
    {
      "inputs": [
        {
          "internalType": "uint256",
          "name": "tokenId",
          "type": "uint256"
        }
      ],
      "name": "getApproved",
      "outputs": [
        {
          "internalType": "address",
          "name": "",
          "type": "address"
        }
      ],
      "stateMutability": "view",
      "type": "function"
    },
    {
      "inputs": [],
      "name": "getListingPrice",
      "outputs": [
        {
          "internalType": "uint256",
          "name": "",
          "type": "uint256"
        }
      ],
      "stateMutability": "view",
      "type": "function"
    },
    {
      "inputs": [
        {
          "internalType": "uint256",
          "name": "",
          "type": "uint256"
        }
      ],
      "name": "idMarketItem",
      "outputs": [
        {
          "internalType": "uint256",
          "name": "tokenId",
          "type": "uint256"
        },
        {
          "internalType": "address payable",
          "name": "seller",
          "type": "address"
        },
        {
          "internalType": "address payable",
          "name": "owner",
          "type": "address"
        },
        {
          "internalType": "uint256",
          "name": "price",
          "type": "uint256"
        },
        {
          "internalType": "bool",
          "name": "sold",
          "type": "bool"
        }
      ],
      "stateMutability": "view",
      "type": "function"
    },
    {
      "inputs": [
        {
          "internalType": "address",
          "name": "owner",
          "type": "address"
        },
        {
          "internalType": "address",
          "name": "operator",
          "type": "address"
        }
      ],
      "name": "isApprovedForAll",
      "outputs": [
        {
          "internalType": "bool",
          "name": "",
          "type": "bool"
        }
      ],
      "stateMutability": "view",
      "type": "function"
    },
    {
      "inputs": [],
      "name": "listingPrice",
      "outputs": [
        {
          "internalType": "uint256",
          "name": "",
          "type": "uint256"
        }
      ],
      "stateMutability": "view",
      "type": "function"
    },
    {
      "inputs": [],
      "name": "name",
      "outputs": [
        {
          "internalType": "string",
          "name": "",
          "type": "string"
        }
      ],
      "stateMutability": "view",
      "type": "function"
    },
    {
      "inputs": [],
      "name": "owner",
      "outputs": [
        {
          "internalType": "address payable",
          "name": "",
          "type": "address"
        }
      ],
      "stateMutability": "view",
      "type": "function"
    },
    {
      "inputs": [
        {
          "internalType": "uint256",
          "name": "tokenId",
          "type": "uint256"
        }
      ],
      "name": "ownerOf",
      "outputs": [
        {
          "internalType": "address",
          "name": "",
          "type": "address"
        }
      ],
      "stateMutability": "view",
      "type": "function"
    },
    {
      "inputs": [
        {
          "internalType": "uint256",
          "name": "tokenId",
          "type": "uint256"
        },
        {
          "internalType": "uint256",
          "name": "price",
          "type": "uint256"
        }
      ],
      "name": "resellToken",
      "outputs": [],
      "stateMutability": "payable",
      "type": "function"
    },
    {
      "inputs": [
        {
          "internalType": "address",
          "name": "from",
          "type": "address"
        },
        {
          "internalType": "address",
          "name": "to",
          "type": "address"
        },
        {
          "internalType": "uint256",
          "name": "tokenId",
          "type": "uint256"
        }
      ],
      "name": "safeTransferFrom",
      "outputs": [],
      "stateMutability": "nonpayable",
      "type": "function"
    },
    {
      "inputs": [
        {
          "internalType": "address",
          "name": "from",
          "type": "address"
        },
        {
          "internalType": "address",
          "name": "to",
          "type": "address"
        },
        {
          "internalType": "uint256",
          "name": "tokenId",
          "type": "uint256"
        },
        {
          "internalType": "bytes",
          "name": "data",
          "type": "bytes"
        }
      ],
      "name": "safeTransferFrom",
      "outputs": [],
      "stateMutability": "nonpayable",
      "type": "function"
    },
    {
      "inputs": [
        {
          "internalType": "address",
          "name": "operator",
          "type": "address"
        },
        {
          "internalType": "bool",
          "name": "approved",
          "type": "bool"
        }
      ],
      "name": "setApprovalForAll",
      "outputs": [],
      "stateMutability": "nonpayable",
      "type": "function"
    },
    {
      "inputs": [
        {
          "internalType": "bytes4",
          "name": "interfaceId",
          "type": "bytes4"
        }
      ],
      "name": "supportsInterface",
      "outputs": [
        {
          "internalType": "bool",
          "name": "",
          "type": "bool"
        }
      ],
      "stateMutability": "view",
      "type": "function"
    },
    {
      "inputs": [],
      "name": "symbol",
      "outputs": [
        {
          "internalType": "string",
          "name": "",
          "type": "string"
        }
      ],
      "stateMutability": "view",
      "type": "function"
    },
    {
      "inputs": [
        {
          "internalType": "uint256",
          "name": "tokenId",
          "type": "uint256"
        }
      ],
      "name": "tokenURI",
      "outputs": [
        {
          "internalType": "string",
          "name": "",
          "type": "string"
        }
      ],
      "stateMutability": "view",
      "type": "function"
    },
    {
      "inputs": [
        {
          "internalType": "address",
          "name": "from",
          "type": "address"
        },
        {
          "internalType": "address",
          "name": "to",
          "type": "address"
        },
        {
          "internalType": "uint256",
          "name": "tokenId",
          "type": "uint256"
        }
      ],
      "name": "transferFrom",
      "outputs": [],
      "stateMutability": "nonpayable",
      "type": "function"
    },
    {
      "inputs": [
        {
          "internalType": "uint256",
          "name": "_listingPrice",
          "type": "uint256"
        }
      ],
      "name": "updateListingPrice",
      "outputs": [],
      "stateMutability": "payable",
      "type": "function"
    }
  ],
  "bytecode": "0x60806040526605543df729c000600b5534801561001b57600080fd5b506040518060400160405280600781526020017f53757072656d65000000000000000000000000000000000000000000000000008152506040518060400160405280600381526020017f53504d000000000000000000000000000000000000000000000000000000000081525081600090816100979190610348565b5080600190816100a79190610348565b505050600160078190555033600a60006101000a81548173ffffffffffffffffffffffffffffffffffffffff021916908373ffffffffffffffffffffffffffffffffffffffff16021790555061041a565b600081519050919050565b7f4e487b7100000000000000000000000000000000000000000000000000000000600052604160045260246000fd5b7f4e487b7100000000000000000000000000000000000000000000000000000000600052602260045260246000fd5b6000600282049050600182168061017957607f821691505b60208210810361018c5761018b610132565b5b50919050565b60008190508160005260206000209050919050565b60006020601f8301049050919050565b600082821b905092915050565b6000600883026101f47fffffffffffffffffffffffffffffffffffffffffffffffffffffffffffffffff826101b7565b6101fe86836101b7565b95508019841693508086168417925050509392505050565b6000819050919050565b6000819050919050565b600061024561024061023b84610216565b610220565b610216565b9050919050565b6000819050919050565b61025f8361022a565b61027361026b8261024c565b8484546101c4565b825550505050565b600090565b61028861027b565b610293818484610256565b505050565b5b818110156102b7576102ac600082610280565b600181019050610299565b5050565b601f8211156102fc576102cd81610192565b6102d6846101a7565b810160208510156102e5578190505b6102f96102f1856101a7565b830182610298565b50505b505050565b600082821c905092915050565b600061031f60001984600802610301565b1980831691505092915050565b6000610338838361030e565b9150826002028217905092915050565b610351826100f8565b67ffffffffffffffff81111561036a57610369610103565b5b6103748254610161565b61037f8282856102bb565b600060209050601f8311600181146103b257600084156103a0578287015190505b6103aa858261032c565b865550610412565b601f1984166103c086610192565b60005b828110156103e8578489015182556001820191506020850194506020810190506103c3565b868310156104055784890151610401601f89168261030e565b8355505b6001600288020188555050505b505050505050565b613ef3806104296000396000f3fe6080604052600436106101665760003560e01c80638c551742116100d1578063b88d4fde1161008a578063c87b56dd11610064578063c87b56dd1461052d578063e17914451461056a578063e219fc7514610595578063e985e9c5146105b157610166565b8063b88d4fde146104bd578063be9af536146104e6578063c78f19f91461050257610166565b80638c551742146103c75780638da5cb5b146103f75780638fafd0211461042257806395d89b411461044d578063a22cb46514610478578063ae677aa3146104a157610166565b806323b872dd1161012357806323b872dd146102a557806324822514146102ce5780632c19e7de146102f957806342842e0e146103245780636352211e1461034d57806370a082311461038a57610166565b806301ffc9a71461016b57806306fdde03146101a8578063081812fc146101d3578063087ae8a214610210578063095ea7b31461025157806312e855851461027a575b600080fd5b34801561017757600080fd5b50610192600480360381019061018d9190612d0d565b6105ee565b60405161019f9190612d55565b60405180910390f35b3480156101b457600080fd5b506101bd61064f565b6040516101ca9190612e00565b60405180910390f35b3480156101df57600080fd5b506101fa60048036038101906101f59190612e58565b6106e1565b6040516102079190612ec6565b60405180910390f35b34801561021c57600080fd5b5061023760048036038101906102329190612e58565b6106fd565b604051610248959493929190612f11565b60405180910390f35b34801561025d57600080fd5b5061027860048036038101906102739190612f90565b610780565b005b34801561028657600080fd5b5061028f610796565b60405161029c9190612fd0565b60405180910390f35b3480156102b157600080fd5b506102cc60048036038101906102c79190612feb565b6107a0565b005b3480156102da57600080fd5b506102e36108a2565b6040516102f09190612fd0565b60405180910390f35b34801561030557600080fd5b5061030e6108a8565b60405161031b9190613182565b60405180910390f35b34801561033057600080fd5b5061034b60048036038101906103469190612feb565b610b81565b005b34801561035957600080fd5b50610374600480360381019061036f9190612e58565b610ba1565b6040516103819190612ec6565b60405180910390f35b34801561039657600080fd5b506103b160048036038101906103ac91906131a4565b610bb3565b6040516103be9190612fd0565b60405180910390f35b6103e160048036038101906103dc9190613306565b610c6d565b6040516103ee9190612fd0565b60405180910390f35b34801561040357600080fd5b5061040c610cf3565b6040516104199190613362565b60405180910390f35b34801561042e57600080fd5b50610437610d19565b6040516104449190613182565b60405180910390f35b34801561045957600080fd5b50610462610f66565b60405161046f9190612e00565b60405180910390f35b34801561048457600080fd5b5061049f600480360381019061049a91906133a9565b610ff8565b005b6104bb60048036038101906104b69190612e58565b61100e565b005b3480156104c957600080fd5b506104e460048036038101906104df919061348a565b6110b8565b005b61050060048036038101906104fb9190612e58565b6110dd565b005b34801561050e57600080fd5b506105176112dd565b6040516105249190612fd0565b60405180910390f35b34801561053957600080fd5b50610554600480360381019061054f9190612e58565b6112e3565b6040516105619190612e00565b60405180910390f35b34801561057657600080fd5b5061057f6113f6565b60405161058c9190613182565b60405180910390f35b6105af60048036038101906105aa919061350d565b6116cf565b005b3480156105bd57600080fd5b506105d860048036038101906105d3919061354d565b6118e3565b6040516105e59190612d55565b60405180910390f35b6000634906490660e01b7bffffffffffffffffffffffffffffffffffffffffffffffffffffffff1916827bffffffffffffffffffffffffffffffffffffffffffffffffffffffff19161480610648575061064782611977565b5b9050919050565b60606000805461065e906135bc565b80601f016020809104026020016040519081016040528092919081815260200182805461068a906135bc565b80156106d75780601f106106ac576101008083540402835291602001916106d7565b820191906000526020600020905b8154815290600101906020018083116106ba57829003601f168201915b5050505050905090565b60006106ec82611a59565b506106f682611ae1565b9050919050565b600c6020528060005260406000206000915090508060000154908060010160009054906101000a900473ffffffffffffffffffffffffffffffffffffffff16908060020160009054906101000a900473ffffffffffffffffffffffffffffffffffffffff16908060030154908060040160009054906101000a900460ff16905085565b610792828261078d611b1e565b611b26565b5050565b6000600b54905090565b600073ffffffffffffffffffffffffffffffffffffffff168273ffffffffffffffffffffffffffffffffffffffff16036108125760006040517f64a0ae920000000000000000000000000000000000000000000000000000000081526004016108099190612ec6565b60405180910390fd5b60006108268383610821611b1e565b611b38565b90508373ffffffffffffffffffffffffffffffffffffffff168173ffffffffffffffffffffffffffffffffffffffff161461089c578382826040517f64283d7b000000000000000000000000000000000000000000000000000000008152600401610893939291906135ed565b60405180910390fd5b50505050565b60085481565b60606000600854905060008060005b83811015610951573373ffffffffffffffffffffffffffffffffffffffff16600c60006001846108e79190613653565b815260200190815260200160002060020160009054906101000a900473ffffffffffffffffffffffffffffffffffffffff1673ffffffffffffffffffffffffffffffffffffffff1603610944576001836109419190613653565b92505b80806001019150506108b7565b5060008267ffffffffffffffff81111561096e5761096d6131db565b5b6040519080825280602002602001820160405280156109a757816020015b610994612c44565b81526020019060019003908161098c5790505b50905060005b84811015610b76573373ffffffffffffffffffffffffffffffffffffffff16600c60006001846109dd9190613653565b815260200190815260200160002060020160009054906101000a900473ffffffffffffffffffffffffffffffffffffffff1673ffffffffffffffffffffffffffffffffffffffff1603610b69576000600182610a399190613653565b90506000600c60008381526020019081526020016000209050806040518060a0016040529081600082015481526020016001820160009054906101000a900473ffffffffffffffffffffffffffffffffffffffff1673ffffffffffffffffffffffffffffffffffffffff1673ffffffffffffffffffffffffffffffffffffffff1681526020016002820160009054906101000a900473ffffffffffffffffffffffffffffffffffffffff1673ffffffffffffffffffffffffffffffffffffffff1673ffffffffffffffffffffffffffffffffffffffff168152602001600382015481526020016004820160009054906101000a900460ff161515151581525050848681518110610b4c57610b4b613687565b5b6020026020010181905250600185610b649190613653565b945050505b80806001019150506109ad565b508094505050505090565b610b9c838383604051806020016040528060008152506110b8565b505050565b6000610bac82611a59565b9050919050565b60008073ffffffffffffffffffffffffffffffffffffffff168273ffffffffffffffffffffffffffffffffffffffff1603610c265760006040517f89c62b64000000000000000000000000000000000000000000000000000000008152600401610c1d9190612ec6565b60405180910390fd5b600360008373ffffffffffffffffffffffffffffffffffffffff1673ffffffffffffffffffffffffffffffffffffffff168152602001908152602001600020549050919050565b6000610c77611d52565b60086000815480929190610c8a906136b6565b919050555060006008549050610ca03382611d98565b610caa8185611e91565b610cd7600a60009054906101000a900473ffffffffffffffffffffffffffffffffffffffff166001610ff8565b610ce18184611eed565b80915050610ced61211b565b92915050565b600a60009054906101000a900473ffffffffffffffffffffffffffffffffffffffff1681565b6060600060085490506000600954600854610d3491906136fe565b90506000808267ffffffffffffffff811115610d5357610d526131db565b5b604051908082528060200260200182016040528015610d8c57816020015b610d79612c44565b815260200190600190039081610d715790505b50905060005b84811015610f5b573073ffffffffffffffffffffffffffffffffffffffff16600c6000600184610dc29190613653565b815260200190815260200160002060020160009054906101000a900473ffffffffffffffffffffffffffffffffffffffff1673ffffffffffffffffffffffffffffffffffffffff1603610f4e576000600182610e1e9190613653565b90506000600c60008381526020019081526020016000209050806040518060a0016040529081600082015481526020016001820160009054906101000a900473ffffffffffffffffffffffffffffffffffffffff1673ffffffffffffffffffffffffffffffffffffffff1673ffffffffffffffffffffffffffffffffffffffff1681526020016002820160009054906101000a900473ffffffffffffffffffffffffffffffffffffffff1673ffffffffffffffffffffffffffffffffffffffff1673ffffffffffffffffffffffffffffffffffffffff168152602001600382015481526020016004820160009054906101000a900460ff161515151581525050848681518110610f3157610f30613687565b5b6020026020010181905250600185610f499190613653565b945050505b8080600101915050610d92565b508094505050505090565b606060018054610f75906135bc565b80601f0160208091040260200160405190810160405280929190818152602001828054610fa1906135bc565b8015610fee5780601f10610fc357610100808354040283529160200191610fee565b820191906000526020600020905b815481529060010190602001808311610fd157829003601f168201915b5050505050905090565b61100a611003611b1e565b8383612125565b5050565b611016611d52565b600a60009054906101000a900473ffffffffffffffffffffffffffffffffffffffff1673ffffffffffffffffffffffffffffffffffffffff163373ffffffffffffffffffffffffffffffffffffffff16146110a6576040517f08c379a000000000000000000000000000000000000000000000000000000000815260040161109d906137a4565b60405180910390fd5b80600b819055506110b561211b565b50565b6110c38484846107a0565b6110d76110ce611b1e565b85858585612294565b50505050565b6110e5611d52565b6000600c6000838152602001908152602001600020600301549050348114611142576040517f08c379a000000000000000000000000000000000000000000000000000000000815260040161113990613836565b60405180910390fd5b33600c600084815260200190815260200160002060020160006101000a81548173ffffffffffffffffffffffffffffffffffffffff021916908373ffffffffffffffffffffffffffffffffffffffff1602179055506001600c600084815260200190815260200160002060040160006101000a81548160ff021916908315150217905550600960008154809291906111d9906136b6565b91905055506111e9303384612445565b600a60009054906101000a900473ffffffffffffffffffffffffffffffffffffffff1673ffffffffffffffffffffffffffffffffffffffff166108fc600b549081150290604051600060405180830381858888f19350505050158015611253573d6000803e3d6000fd5b50600c600083815260200190815260200160002060010160009054906101000a900473ffffffffffffffffffffffffffffffffffffffff1673ffffffffffffffffffffffffffffffffffffffff166108fc349081150290604051600060405180830381858888f193505050501580156112d0573d6000803e3d6000fd5b50506112da61211b565b50565b600b5481565b60606112ee82611a59565b50600060066000848152602001908152602001600020805461130f906135bc565b80601f016020809104026020016040519081016040528092919081815260200182805461133b906135bc565b80156113885780601f1061135d57610100808354040283529160200191611388565b820191906000526020600020905b81548152906001019060200180831161136b57829003601f168201915b5050505050905060006113996125b2565b905060008151036113ae5781925050506113f1565b6000825111156113e35780826040516020016113cb929190613892565b604051602081830303815290604052925050506113f1565b6113ec846125c9565b925050505b919050565b60606000600854905060008060005b8381101561149f573373ffffffffffffffffffffffffffffffffffffffff16600c60006001846114359190613653565b815260200190815260200160002060010160009054906101000a900473ffffffffffffffffffffffffffffffffffffffff1673ffffffffffffffffffffffffffffffffffffffff16036114925760018361148f9190613653565b92505b8080600101915050611405565b5060008267ffffffffffffffff8111156114bc576114bb6131db565b5b6040519080825280602002602001820160405280156114f557816020015b6114e2612c44565b8152602001906001900390816114da5790505b50905060005b848110156116c4573373ffffffffffffffffffffffffffffffffffffffff16600c600060018461152b9190613653565b815260200190815260200160002060010160009054906101000a900473ffffffffffffffffffffffffffffffffffffffff1673ffffffffffffffffffffffffffffffffffffffff16036116b75760006001826115879190613653565b90506000600c60008381526020019081526020016000209050806040518060a0016040529081600082015481526020016001820160009054906101000a900473ffffffffffffffffffffffffffffffffffffffff1673ffffffffffffffffffffffffffffffffffffffff1673ffffffffffffffffffffffffffffffffffffffff1681526020016002820160009054906101000a900473ffffffffffffffffffffffffffffffffffffffff1673ffffffffffffffffffffffffffffffffffffffff1673ffffffffffffffffffffffffffffffffffffffff168152602001600382015481526020016004820160009054906101000a900460ff16151515158152505084868151811061169a57611699613687565b5b60200260200101819052506001856116b29190613653565b945050505b80806001019150506114fb565b508094505050505090565b6116d7611d52565b3373ffffffffffffffffffffffffffffffffffffffff16600c600084815260200190815260200160002060020160009054906101000a900473ffffffffffffffffffffffffffffffffffffffff1673ffffffffffffffffffffffffffffffffffffffff161461177b576040517f08c379a000000000000000000000000000000000000000000000000000000000815260040161177290613902565b60405180910390fd5b600b543410156117c0576040517f08c379a00000000000000000000000000000000000000000000000000000000081526004016117b790613994565b60405180910390fd5b6000600c600084815260200190815260200160002060040160006101000a81548160ff02191690831515021790555080600c60008481526020019081526020016000206003018190555033600c600084815260200190815260200160002060010160006101000a81548173ffffffffffffffffffffffffffffffffffffffff021916908373ffffffffffffffffffffffffffffffffffffffff16021790555030600c600084815260200190815260200160002060020160006101000a81548173ffffffffffffffffffffffffffffffffffffffff021916908373ffffffffffffffffffffffffffffffffffffffff160217905550600960008154809291906118c7906139b4565b91905055506118d7333084612445565b6118df61211b565b5050565b6000600560008473ffffffffffffffffffffffffffffffffffffffff1673ffffffffffffffffffffffffffffffffffffffff16815260200190815260200160002060008373ffffffffffffffffffffffffffffffffffffffff1673ffffffffffffffffffffffffffffffffffffffff16815260200190815260200160002060009054906101000a900460ff16905092915050565b60007f80ac58cd000000000000000000000000000000000000000000000000000000007bffffffffffffffffffffffffffffffffffffffffffffffffffffffff1916827bffffffffffffffffffffffffffffffffffffffffffffffffffffffff19161480611a4257507f5b5e139f000000000000000000000000000000000000000000000000000000007bffffffffffffffffffffffffffffffffffffffffffffffffffffffff1916827bffffffffffffffffffffffffffffffffffffffffffffffffffffffff1916145b80611a525750611a5182612632565b5b9050919050565b600080611a658361269c565b9050600073ffffffffffffffffffffffffffffffffffffffff168173ffffffffffffffffffffffffffffffffffffffff1603611ad857826040517f7e273289000000000000000000000000000000000000000000000000000000008152600401611acf9190612fd0565b60405180910390fd5b80915050919050565b60006004600083815260200190815260200160002060009054906101000a900473ffffffffffffffffffffffffffffffffffffffff169050919050565b600033905090565b611b3383838360016126d9565b505050565b600080611b448461269c565b9050600073ffffffffffffffffffffffffffffffffffffffff168373ffffffffffffffffffffffffffffffffffffffff1614611b8657611b8581848661289e565b5b600073ffffffffffffffffffffffffffffffffffffffff168173ffffffffffffffffffffffffffffffffffffffff1614611c1757611bc86000856000806126d9565b6001600360008373ffffffffffffffffffffffffffffffffffffffff1673ffffffffffffffffffffffffffffffffffffffff168152602001908152602001600020600082825403925050819055505b600073ffffffffffffffffffffffffffffffffffffffff168573ffffffffffffffffffffffffffffffffffffffff1614611c9a576001600360008773ffffffffffffffffffffffffffffffffffffffff1673ffffffffffffffffffffffffffffffffffffffff168152602001908152602001600020600082825401925050819055505b846002600086815260200190815260200160002060006101000a81548173ffffffffffffffffffffffffffffffffffffffff021916908373ffffffffffffffffffffffffffffffffffffffff160217905550838573ffffffffffffffffffffffffffffffffffffffff168273ffffffffffffffffffffffffffffffffffffffff167fddf252ad1be2c89b69c2b068fc378daa952ba7f163c4a11628f55a4df523b3ef60405160405180910390a4809150509392505050565b600260075403611d8e576040517f3ee5aeb500000000000000000000000000000000000000000000000000000000815260040160405180910390fd5b6002600781905550565b600073ffffffffffffffffffffffffffffffffffffffff168273ffffffffffffffffffffffffffffffffffffffff1603611e0a5760006040517f64a0ae92000000000000000000000000000000000000000000000000000000008152600401611e019190612ec6565b60405180910390fd5b6000611e1883836000611b38565b9050600073ffffffffffffffffffffffffffffffffffffffff168173ffffffffffffffffffffffffffffffffffffffff1614611e8c5760006040517f73c6ac6e000000000000000000000000000000000000000000000000000000008152600401611e839190612ec6565b60405180910390fd5b505050565b80600660008481526020019081526020016000209081611eb19190613b89565b507ff8e1a15aba9398e019f0b49df1a4fde98ee17ae345cb5f6b5e2c27f5033e8ce782604051611ee19190612fd0565b60405180910390a15050565b60008111611f30576040517f08c379a0000000000000000000000000000000000000000000000000000000008152600401611f2790613ca7565b60405180910390fd5b600b54341015611f75576040517f08c379a0000000000000000000000000000000000000000000000000000000008152600401611f6c90613d39565b60405180910390fd5b6040518060a001604052808381526020013373ffffffffffffffffffffffffffffffffffffffff1681526020013073ffffffffffffffffffffffffffffffffffffffff16815260200182815260200160001515815250600c60008481526020019081526020016000206000820151816000015560208201518160010160006101000a81548173ffffffffffffffffffffffffffffffffffffffff021916908373ffffffffffffffffffffffffffffffffffffffff16021790555060408201518160020160006101000a81548173ffffffffffffffffffffffffffffffffffffffff021916908373ffffffffffffffffffffffffffffffffffffffff1602179055506060820151816003015560808201518160040160006101000a81548160ff0219169083151502179055509050506120ae333084612445565b3073ffffffffffffffffffffffffffffffffffffffff163373ffffffffffffffffffffffffffffffffffffffff16837fdebdb32cb5230ab727c9c361b16fdb2015df225c10e6a3e7f60ecd5dc5be451684600060405161210f929190613d59565b60405180910390a45050565b6001600781905550565b600073ffffffffffffffffffffffffffffffffffffffff168273ffffffffffffffffffffffffffffffffffffffff160361219657816040517f5b08ba1800000000000000000000000000000000000000000000000000000000815260040161218d9190612ec6565b60405180910390fd5b80600560008573ffffffffffffffffffffffffffffffffffffffff1673ffffffffffffffffffffffffffffffffffffffff16815260200190815260200160002060008473ffffffffffffffffffffffffffffffffffffffff1673ffffffffffffffffffffffffffffffffffffffff16815260200190815260200160002060006101000a81548160ff0219169083151502179055508173ffffffffffffffffffffffffffffffffffffffff168373ffffffffffffffffffffffffffffffffffffffff167f17307eab39ab6107e8899845ad3d59bd9653f200f220920489ca2b5937696c31836040516122879190612d55565b60405180910390a3505050565b60008373ffffffffffffffffffffffffffffffffffffffff163b111561243e578273ffffffffffffffffffffffffffffffffffffffff1663150b7a02868685856040518563ffffffff1660e01b81526004016122f39493929190613dd7565b6020604051808303816000875af192505050801561232f57506040513d601f19601f8201168201806040525081019061232c9190613e38565b60015b6123b3573d806000811461235f576040519150601f19603f3d011682016040523d82523d6000602084013e612364565b606091505b5060008151036123ab57836040517f64a0ae920000000000000000000000000000000000000000000000000000000081526004016123a29190612ec6565b60405180910390fd5b805181602001fd5b63150b7a0260e01b7bffffffffffffffffffffffffffffffffffffffffffffffffffffffff1916817bffffffffffffffffffffffffffffffffffffffffffffffffffffffff19161461243c57836040517f64a0ae920000000000000000000000000000000000000000000000000000000081526004016124339190612ec6565b60405180910390fd5b505b5050505050565b600073ffffffffffffffffffffffffffffffffffffffff168273ffffffffffffffffffffffffffffffffffffffff16036124b75760006040517f64a0ae920000000000000000000000000000000000000000000000000000000081526004016124ae9190612ec6565b60405180910390fd5b60006124c583836000611b38565b9050600073ffffffffffffffffffffffffffffffffffffffff168173ffffffffffffffffffffffffffffffffffffffff160361253857816040517f7e27328900000000000000000000000000000000000000000000000000000000815260040161252f9190612fd0565b60405180910390fd5b8373ffffffffffffffffffffffffffffffffffffffff168173ffffffffffffffffffffffffffffffffffffffff16146125ac578382826040517f64283d7b0000000000000000000000000000000000000000000000000000000081526004016125a3939291906135ed565b60405180910390fd5b50505050565b606060405180602001604052806000815250905090565b60606125d482611a59565b5060006125df6125b2565b905060008151116125ff576040518060200160405280600081525061262a565b8061260984612962565b60405160200161261a929190613892565b6040516020818303038152906040525b915050919050565b60007f01ffc9a7000000000000000000000000000000000000000000000000000000007bffffffffffffffffffffffffffffffffffffffffffffffffffffffff1916827bffffffffffffffffffffffffffffffffffffffffffffffffffffffff1916149050919050565b60006002600083815260200190815260200160002060009054906101000a900473ffffffffffffffffffffffffffffffffffffffff169050919050565b80806127125750600073ffffffffffffffffffffffffffffffffffffffff168273ffffffffffffffffffffffffffffffffffffffff1614155b1561284657600061272284611a59565b9050600073ffffffffffffffffffffffffffffffffffffffff168373ffffffffffffffffffffffffffffffffffffffff161415801561278d57508273ffffffffffffffffffffffffffffffffffffffff168173ffffffffffffffffffffffffffffffffffffffff1614155b80156127a0575061279e81846118e3565b155b156127e257826040517fa9fbf51f0000000000000000000000000000000000000000000000000000000081526004016127d99190612ec6565b60405180910390fd5b811561284457838573ffffffffffffffffffffffffffffffffffffffff168273ffffffffffffffffffffffffffffffffffffffff167f8c5be1e5ebec7d5bd14f71427d1e84f3dd0314c0f7b2291e5b200ac8c7c3b92560405160405180910390a45b505b836004600085815260200190815260200160002060006101000a81548173ffffffffffffffffffffffffffffffffffffffff021916908373ffffffffffffffffffffffffffffffffffffffff16021790555050505050565b6128a9838383612a30565b61295d57600073ffffffffffffffffffffffffffffffffffffffff168373ffffffffffffffffffffffffffffffffffffffff160361291e57806040517f7e2732890000000000000000000000000000000000000000000000000000000081526004016129159190612fd0565b60405180910390fd5b81816040517f177e802f000000000000000000000000000000000000000000000000000000008152600401612954929190613e65565b60405180910390fd5b505050565b60606000600161297184612af1565b01905060008167ffffffffffffffff8111156129905761298f6131db565b5b6040519080825280601f01601f1916602001820160405280156129c25781602001600182028036833780820191505090505b509050600082602001820190505b600115612a25578080600190039150507f3031323334353637383961626364656600000000000000000000000000000000600a86061a8153600a8581612a1957612a18613e8e565b5b049450600085036129d0575b819350505050919050565b60008073ffffffffffffffffffffffffffffffffffffffff168373ffffffffffffffffffffffffffffffffffffffff1614158015612ae857508273ffffffffffffffffffffffffffffffffffffffff168473ffffffffffffffffffffffffffffffffffffffff161480612aa95750612aa884846118e3565b5b80612ae757508273ffffffffffffffffffffffffffffffffffffffff16612acf83611ae1565b73ffffffffffffffffffffffffffffffffffffffff16145b5b90509392505050565b600080600090507a184f03e93ff9f4daa797ed6e38ed64bf6a1f0100000000000000008310612b4f577a184f03e93ff9f4daa797ed6e38ed64bf6a1f0100000000000000008381612b4557612b44613e8e565b5b0492506040810190505b6d04ee2d6d415b85acef81000000008310612b8c576d04ee2d6d415b85acef81000000008381612b8257612b81613e8e565b5b0492506020810190505b662386f26fc100008310612bbb57662386f26fc100008381612bb157612bb0613e8e565b5b0492506010810190505b6305f5e1008310612be4576305f5e1008381612bda57612bd9613e8e565b5b0492506008810190505b6127108310612c09576127108381612bff57612bfe613e8e565b5b0492506004810190505b60648310612c2c5760648381612c2257612c21613e8e565b5b0492506002810190505b600a8310612c3b576001810190505b80915050919050565b6040518060a0016040528060008152602001600073ffffffffffffffffffffffffffffffffffffffff168152602001600073ffffffffffffffffffffffffffffffffffffffff168152602001600081526020016000151581525090565b6000604051905090565b600080fd5b600080fd5b60007fffffffff0000000000000000000000000000000000000000000000000000000082169050919050565b612cea81612cb5565b8114612cf557600080fd5b50565b600081359050612d0781612ce1565b92915050565b600060208284031215612d2357612d22612cab565b5b6000612d3184828501612cf8565b91505092915050565b60008115159050919050565b612d4f81612d3a565b82525050565b6000602082019050612d6a6000830184612d46565b92915050565b600081519050919050565b600082825260208201905092915050565b60005b83811015612daa578082015181840152602081019050612d8f565b60008484015250505050565b6000601f19601f8301169050919050565b6000612dd282612d70565b612ddc8185612d7b565b9350612dec818560208601612d8c565b612df581612db6565b840191505092915050565b60006020820190508181036000830152612e1a8184612dc7565b905092915050565b6000819050919050565b612e3581612e22565b8114612e4057600080fd5b50565b600081359050612e5281612e2c565b92915050565b600060208284031215612e6e57612e6d612cab565b5b6000612e7c84828501612e43565b91505092915050565b600073ffffffffffffffffffffffffffffffffffffffff82169050919050565b6000612eb082612e85565b9050919050565b612ec081612ea5565b82525050565b6000602082019050612edb6000830184612eb7565b92915050565b612eea81612e22565b82525050565b6000612efb82612e85565b9050919050565b612f0b81612ef0565b82525050565b600060a082019050612f266000830188612ee1565b612f336020830187612f02565b612f406040830186612f02565b612f4d6060830185612ee1565b612f5a6080830184612d46565b9695505050505050565b612f6d81612ea5565b8114612f7857600080fd5b50565b600081359050612f8a81612f64565b92915050565b60008060408385031215612fa757612fa6612cab565b5b6000612fb585828601612f7b565b9250506020612fc685828601612e43565b9150509250929050565b6000602082019050612fe56000830184612ee1565b92915050565b60008060006060848603121561300457613003612cab565b5b600061301286828701612f7b565b935050602061302386828701612f7b565b925050604061303486828701612e43565b9150509250925092565b600081519050919050565b600082825260208201905092915050565b6000819050602082019050919050565b61307381612e22565b82525050565b61308281612ef0565b82525050565b61309181612d3a565b82525050565b60a0820160008201516130ad600085018261306a565b5060208201516130c06020850182613079565b5060408201516130d36040850182613079565b5060608201516130e6606085018261306a565b5060808201516130f96080850182613088565b50505050565b600061310b8383613097565b60a08301905092915050565b6000602082019050919050565b600061312f8261303e565b6131398185613049565b93506131448361305a565b8060005b8381101561317557815161315c88826130ff565b975061316783613117565b925050600181019050613148565b5085935050505092915050565b6000602082019050818103600083015261319c8184613124565b905092915050565b6000602082840312156131ba576131b9612cab565b5b60006131c884828501612f7b565b91505092915050565b600080fd5b600080fd5b7f4e487b7100000000000000000000000000000000000000000000000000000000600052604160045260246000fd5b61321382612db6565b810181811067ffffffffffffffff82111715613232576132316131db565b5b80604052505050565b6000613245612ca1565b9050613251828261320a565b919050565b600067ffffffffffffffff821115613271576132706131db565b5b61327a82612db6565b9050602081019050919050565b82818337600083830152505050565b60006132a96132a484613256565b61323b565b9050828152602081018484840111156132c5576132c46131d6565b5b6132d0848285613287565b509392505050565b600082601f8301126132ed576132ec6131d1565b5b81356132fd848260208601613296565b91505092915050565b6000806040838503121561331d5761331c612cab565b5b600083013567ffffffffffffffff81111561333b5761333a612cb0565b5b613347858286016132d8565b925050602061335885828601612e43565b9150509250929050565b60006020820190506133776000830184612f02565b92915050565b61338681612d3a565b811461339157600080fd5b50565b6000813590506133a38161337d565b92915050565b600080604083850312156133c0576133bf612cab565b5b60006133ce85828601612f7b565b92505060206133df85828601613394565b9150509250929050565b600067ffffffffffffffff821115613404576134036131db565b5b61340d82612db6565b9050602081019050919050565b600061342d613428846133e9565b61323b565b905082815260208101848484011115613449576134486131d6565b5b613454848285613287565b509392505050565b600082601f830112613471576134706131d1565b5b813561348184826020860161341a565b91505092915050565b600080600080608085870312156134a4576134a3612cab565b5b60006134b287828801612f7b565b94505060206134c387828801612f7b565b93505060406134d487828801612e43565b925050606085013567ffffffffffffffff8111156134f5576134f4612cb0565b5b6135018782880161345c565b91505092959194509250565b6000806040838503121561352457613523612cab565b5b600061353285828601612e43565b925050602061354385828601612e43565b9150509250929050565b6000806040838503121561356457613563612cab565b5b600061357285828601612f7b565b925050602061358385828601612f7b565b9150509250929050565b7f4e487b7100000000000000000000000000000000000000000000000000000000600052602260045260246000fd5b600060028204905060018216806135d457607f821691505b6020821081036135e7576135e661358d565b5b50919050565b60006060820190506136026000830186612eb7565b61360f6020830185612ee1565b61361c6040830184612eb7565b949350505050565b7f4e487b7100000000000000000000000000000000000000000000000000000000600052601160045260246000fd5b600061365e82612e22565b915061366983612e22565b925082820190508082111561368157613680613624565b5b92915050565b7f4e487b7100000000000000000000000000000000000000000000000000000000600052603260045260246000fd5b60006136c182612e22565b91507fffffffffffffffffffffffffffffffffffffffffffffffffffffffffffffffff82036136f3576136f2613624565b5b600182019050919050565b600061370982612e22565b915061371483612e22565b925082820390508181111561372c5761372b613624565b5b92915050565b7f4f6e6c79206f776e65722063616e206368616e676520746865206c697374696e60008201527f6720707269636500000000000000000000000000000000000000000000000000602082015250565b600061378e602783612d7b565b915061379982613732565b604082019050919050565b600060208201905081810360008301526137bd81613781565b9050919050565b7f506c65617365207375626d6974207468652061736b696e67207072696365207460008201527f6f20636f6d706c65746520746865207472616e73616374696f6e000000000000602082015250565b6000613820603a83612d7b565b915061382b826137c4565b604082019050919050565b6000602082019050818103600083015261384f81613813565b9050919050565b600081905092915050565b600061386c82612d70565b6138768185613856565b9350613886818560208601612d8c565b80840191505092915050565b600061389e8285613861565b91506138aa8284613861565b91508190509392505050565b7f4f6e6c7920206974656d206f776e65722063616e20726573656c6c0000000000600082015250565b60006138ec601b83612d7b565b91506138f7826138b6565b602082019050919050565b6000602082019050818103600083015261391b816138df565b9050919050565b7f5072696365206d75737420626520657175616c206f722067726561746572207460008201527f68616e206c697374696e67507269636500000000000000000000000000000000602082015250565b600061397e603083612d7b565b915061398982613922565b604082019050919050565b600060208201905081810360008301526139ad81613971565b9050919050565b60006139bf82612e22565b9150600082036139d2576139d1613624565b5b600182039050919050565b60008190508160005260206000209050919050565b60006020601f8301049050919050565b600082821b905092915050565b600060088302613a3f7fffffffffffffffffffffffffffffffffffffffffffffffffffffffffffffffff82613a02565b613a498683613a02565b95508019841693508086168417925050509392505050565b6000819050919050565b6000613a86613a81613a7c84612e22565b613a61565b612e22565b9050919050565b6000819050919050565b613aa083613a6b565b613ab4613aac82613a8d565b848454613a0f565b825550505050565b600090565b613ac9613abc565b613ad4818484613a97565b505050565b5b81811015613af857613aed600082613ac1565b600181019050613ada565b5050565b601f821115613b3d57613b0e816139dd565b613b17846139f2565b81016020851015613b26578190505b613b3a613b32856139f2565b830182613ad9565b50505b505050565b600082821c905092915050565b6000613b6060001984600802613b42565b1980831691505092915050565b6000613b798383613b4f565b9150826002028217905092915050565b613b9282612d70565b67ffffffffffffffff811115613bab57613baa6131db565b5b613bb582546135bc565b613bc0828285613afc565b600060209050601f831160018114613bf35760008415613be1578287015190505b613beb8582613b6d565b865550613c53565b601f198416613c01866139dd565b60005b82811015613c2957848901518255600182019150602085019450602081019050613c04565b86831015613c465784890151613c42601f891682613b4f565b8355505b6001600288020188555050505b505050505050565b7f5072696365206d757374206265206174206c6561737420310000000000000000600082015250565b6000613c91601883612d7b565b9150613c9c82613c5b565b602082019050919050565b60006020820190508181036000830152613cc081613c84565b9050919050565b7f5072696365206d75737420626520657175616c206f722067726561746572207460008201527f68616e206c697374696e67207072696365000000000000000000000000000000602082015250565b6000613d23603183612d7b565b9150613d2e82613cc7565b604082019050919050565b60006020820190508181036000830152613d5281613d16565b9050919050565b6000604082019050613d6e6000830185612ee1565b613d7b6020830184612d46565b9392505050565b600081519050919050565b600082825260208201905092915050565b6000613da982613d82565b613db38185613d8d565b9350613dc3818560208601612d8c565b613dcc81612db6565b840191505092915050565b6000608082019050613dec6000830187612eb7565b613df96020830186612eb7565b613e066040830185612ee1565b8181036060830152613e188184613d9e565b905095945050505050565b600081519050613e3281612ce1565b92915050565b600060208284031215613e4e57613e4d612cab565b5b6000613e5c84828501613e23565b91505092915050565b6000604082019050613e7a6000830185612eb7565b613e876020830184612ee1565b9392505050565b7f4e487b7100000000000000000000000000000000000000000000000000000000600052601260045260246000fdfea264697066735822122027d0d0390fde85a0d6c43ef1c789b96ad8d4e99a7cc94cecb19443e62374183a64736f6c634300081b0033",
  "linkReferences": {},
  "deployedLinkReferences": {}
}